{
  "_format": "hh-sol-artifact-1",
  "contractName": "ARPOAuctionHouse",
  "sourceName": "contracts/AuctionHouse.sol",
  "abi": [
    {
      "inputs": [
        {
          "internalType": "address",
          "name": "_nftContract",
          "type": "address"
        },
        {
          "internalType": "address",
          "name": "_feeRecipient",
          "type": "address"
        }
      ],
      "stateMutability": "nonpayable",
      "type": "constructor"
    },
    {
      "inputs": [],
      "name": "EnforcedPause",
      "type": "error"
    },
    {
      "inputs": [],
      "name": "ExpectedPause",
      "type": "error"
    },
    {
      "inputs": [
        {
          "internalType": "address",
          "name": "owner",
          "type": "address"
        }
      ],
      "name": "OwnableInvalidOwner",
      "type": "error"
    },
    {
      "inputs": [
        {
          "internalType": "address",
          "name": "account",
          "type": "address"
        }
      ],
      "name": "OwnableUnauthorizedAccount",
      "type": "error"
    },
    {
      "inputs": [],
      "name": "ReentrancyGuardReentrantCall",
      "type": "error"
    },
    {
      "anonymous": false,
      "inputs": [
        {
          "indexed": true,
          "internalType": "uint256",
          "name": "auctionId",
          "type": "uint256"
        }
      ],
      "name": "AuctionCancelled",
      "type": "event"
    },
    {
      "anonymous": false,
      "inputs": [
        {
          "indexed": true,
          "internalType": "uint256",
          "name": "auctionId",
          "type": "uint256"
        },
        {
          "indexed": true,
          "internalType": "address",
          "name": "artist",
          "type": "address"
        },
        {
          "indexed": false,
          "internalType": "uint256",
          "name": "startTime",
          "type": "uint256"
        },
        {
          "indexed": false,
          "internalType": "uint256",
          "name": "endTime",
          "type": "uint256"
        },
        {
          "indexed": false,
          "internalType": "uint256",
          "name": "reservePrice",
          "type": "uint256"
        },
        {
          "indexed": false,
          "internalType": "string",
          "name": "metadataURI",
          "type": "string"
        }
      ],
      "name": "AuctionCreated",
      "type": "event"
    },
    {
      "anonymous": false,
      "inputs": [
        {
          "indexed": true,
          "internalType": "uint256",
          "name": "auctionId",
          "type": "uint256"
        },
        {
          "indexed": true,
          "internalType": "address",
          "name": "winner",
          "type": "address"
        },
        {
          "indexed": false,
          "internalType": "uint256",
          "name": "amount",
          "type": "uint256"
        },
        {
          "indexed": false,
          "internalType": "uint256",
          "name": "tokenId",
          "type": "uint256"
        }
      ],
      "name": "AuctionSettled",
      "type": "event"
    },
    {
      "anonymous": false,
      "inputs": [
        {
          "indexed": true,
          "internalType": "uint256",
          "name": "auctionId",
          "type": "uint256"
        },
        {
          "indexed": true,
          "internalType": "address",
          "name": "bidder",
          "type": "address"
        },
        {
          "indexed": false,
          "internalType": "uint256",
          "name": "amount",
          "type": "uint256"
        },
        {
          "indexed": false,
          "internalType": "bool",
          "name": "extended",
          "type": "bool"
        }
      ],
      "name": "BidPlaced",
      "type": "event"
    },
    {
      "anonymous": false,
      "inputs": [
        {
          "indexed": true,
          "internalType": "address",
          "name": "user",
          "type": "address"
        },
        {
          "indexed": false,
          "internalType": "uint256",
          "name": "amount",
          "type": "uint256"
        }
      ],
      "name": "DepositReceived",
      "type": "event"
    },
    {
      "anonymous": false,
      "inputs": [
        {
          "indexed": true,
          "internalType": "address",
          "name": "oldHooks",
          "type": "address"
        },
        {
          "indexed": true,
          "internalType": "address",
          "name": "newHooks",
          "type": "address"
        }
      ],
      "name": "HooksUpdated",
      "type": "event"
    },
    {
      "anonymous": false,
      "inputs": [
        {
          "indexed": true,
          "internalType": "address",
          "name": "previousOwner",
          "type": "address"
        },
        {
          "indexed": true,
          "internalType": "address",
          "name": "newOwner",
          "type": "address"
        }
      ],
      "name": "OwnershipTransferred",
      "type": "event"
    },
    {
      "anonymous": false,
      "inputs": [
        {
          "indexed": false,
          "internalType": "address",
          "name": "account",
          "type": "address"
        }
      ],
      "name": "Paused",
      "type": "event"
    },
    {
      "anonymous": false,
      "inputs": [
        {
          "indexed": false,
          "internalType": "uint256",
          "name": "oldFee",
          "type": "uint256"
        },
        {
          "indexed": false,
          "internalType": "uint256",
          "name": "newFee",
          "type": "uint256"
        }
      ],
      "name": "PlatformFeeUpdated",
      "type": "event"
    },
    {
      "anonymous": false,
      "inputs": [
        {
          "indexed": false,
          "internalType": "address",
          "name": "account",
          "type": "address"
        }
      ],
      "name": "Unpaused",
      "type": "event"
    },
    {
      "anonymous": false,
      "inputs": [
        {
          "indexed": true,
          "internalType": "address",
          "name": "user",
          "type": "address"
        },
        {
          "indexed": false,
          "internalType": "uint256",
          "name": "amount",
          "type": "uint256"
        }
      ],
      "name": "Withdrawal",
      "type": "event"
    },
    {
      "inputs": [],
      "name": "ANTI_SNIPE_EXTENSION",
      "outputs": [
        {
          "internalType": "uint256",
          "name": "",
          "type": "uint256"
        }
      ],
      "stateMutability": "view",
      "type": "function"
    },
    {
      "inputs": [],
      "name": "ANTI_SNIPE_WINDOW",
      "outputs": [
        {
          "internalType": "uint256",
          "name": "",
          "type": "uint256"
        }
      ],
      "stateMutability": "view",
      "type": "function"
    },
    {
      "inputs": [],
      "name": "MAX_AUCTION_DURATION",
      "outputs": [
        {
          "internalType": "uint256",
          "name": "",
          "type": "uint256"
        }
      ],
      "stateMutability": "view",
      "type": "function"
    },
    {
      "inputs": [],
      "name": "MAX_BID_INCREMENT_BPS",
      "outputs": [
        {
          "internalType": "uint256",
          "name": "",
          "type": "uint256"
        }
      ],
      "stateMutability": "view",
      "type": "function"
    },
    {
      "inputs": [],
      "name": "MIN_AUCTION_DURATION",
      "outputs": [
        {
          "internalType": "uint256",
          "name": "",
          "type": "uint256"
        }
      ],
      "stateMutability": "view",
      "type": "function"
    },
    {
      "inputs": [],
      "name": "MIN_BID_INCREMENT_BPS",
      "outputs": [
        {
          "internalType": "uint256",
          "name": "",
          "type": "uint256"
        }
      ],
      "stateMutability": "view",
      "type": "function"
    },
    {
      "inputs": [],
      "name": "auctionCount",
      "outputs": [
        {
          "internalType": "uint256",
          "name": "",
          "type": "uint256"
        }
      ],
      "stateMutability": "view",
      "type": "function"
    },
    {
      "inputs": [
        {
          "internalType": "uint256",
          "name": "",
          "type": "uint256"
        }
      ],
      "name": "auctions",
      "outputs": [
        {
          "internalType": "uint256",
          "name": "tokenId",
          "type": "uint256"
        },
        {
          "internalType": "address",
          "name": "artist",
          "type": "address"
        },
        {
          "internalType": "uint256",
          "name": "startTime",
          "type": "uint256"
        },
        {
          "internalType": "uint256",
          "name": "endTime",
          "type": "uint256"
        },
        {
          "internalType": "uint256",
          "name": "reservePrice",
          "type": "uint256"
        },
        {
          "internalType": "uint256",
          "name": "highestBid",
          "type": "uint256"
        },
        {
          "internalType": "address",
          "name": "highestBidder",
          "type": "address"
        },
        {
          "internalType": "bool",
          "name": "settled",
          "type": "bool"
        },
        {
          "internalType": "bool",
          "name": "cancelled",
          "type": "bool"
        },
        {
          "internalType": "string",
          "name": "metadataURI",
          "type": "string"
        }
      ],
      "stateMutability": "view",
      "type": "function"
    },
    {
      "inputs": [
        {
          "internalType": "uint256",
          "name": "auctionId",
          "type": "uint256"
        }
      ],
      "name": "cancelAuction",
      "outputs": [],
      "stateMutability": "nonpayable",
      "type": "function"
    },
    {
      "inputs": [
        {
          "internalType": "address",
          "name": "artist",
          "type": "address"
        },
        {
          "internalType": "uint256",
          "name": "startTime",
          "type": "uint256"
        },
        {
          "internalType": "uint256",
          "name": "duration",
          "type": "uint256"
        },
        {
          "internalType": "uint256",
          "name": "reservePrice",
          "type": "uint256"
        },
        {
          "internalType": "string",
          "name": "metadataURI",
          "type": "string"
        }
      ],
      "name": "createAuction",
      "outputs": [
        {
          "internalType": "uint256",
          "name": "",
          "type": "uint256"
        }
      ],
      "stateMutability": "nonpayable",
      "type": "function"
    },
    {
      "inputs": [
        {
          "internalType": "uint256",
          "name": "auctionId",
          "type": "uint256"
        }
      ],
      "name": "getAuction",
      "outputs": [
        {
          "components": [
            {
              "internalType": "uint256",
              "name": "tokenId",
              "type": "uint256"
            },
            {
              "internalType": "address",
              "name": "artist",
              "type": "address"
            },
            {
              "internalType": "uint256",
              "name": "startTime",
              "type": "uint256"
            },
            {
              "internalType": "uint256",
              "name": "endTime",
              "type": "uint256"
            },
            {
              "internalType": "uint256",
              "name": "reservePrice",
              "type": "uint256"
            },
            {
              "internalType": "uint256",
              "name": "highestBid",
              "type": "uint256"
            },
            {
              "internalType": "address",
              "name": "highestBidder",
              "type": "address"
            },
            {
              "internalType": "bool",
              "name": "settled",
              "type": "bool"
            },
            {
              "internalType": "bool",
              "name": "cancelled",
              "type": "bool"
            },
            {
              "internalType": "string",
              "name": "metadataURI",
              "type": "string"
            }
          ],
          "internalType": "struct ARPOAuctionHouse.Auction",
          "name": "",
          "type": "tuple"
        }
      ],
      "stateMutability": "view",
      "type": "function"
    },
    {
      "inputs": [
        {
          "internalType": "uint256",
          "name": "auctionId",
          "type": "uint256"
        }
      ],
      "name": "getAuctionEndTime",
      "outputs": [
        {
          "internalType": "uint256",
          "name": "",
          "type": "uint256"
        }
      ],
      "stateMutability": "view",
      "type": "function"
    },
    {
      "inputs": [
        {
          "internalType": "address",
          "name": "user",
          "type": "address"
        }
      ],
      "name": "getAvailableBalance",
      "outputs": [
        {
          "internalType": "uint256",
          "name": "",
          "type": "uint256"
        }
      ],
      "stateMutability": "view",
      "type": "function"
    },
    {
      "inputs": [
        {
          "internalType": "uint256",
          "name": "auctionId",
          "type": "uint256"
        }
      ],
      "name": "getMinBid",
      "outputs": [
        {
          "internalType": "uint256",
          "name": "",
          "type": "uint256"
        }
      ],
      "stateMutability": "view",
      "type": "function"
    },
    {
      "inputs": [],
      "name": "hooks",
      "outputs": [
        {
          "internalType": "contract IHooks",
          "name": "",
          "type": "address"
        }
      ],
      "stateMutability": "view",
      "type": "function"
    },
    {
      "inputs": [
        {
          "internalType": "uint256",
          "name": "auctionId",
          "type": "uint256"
        }
      ],
      "name": "isAuctionActive",
      "outputs": [
        {
          "internalType": "bool",
          "name": "",
          "type": "bool"
        }
      ],
      "stateMutability": "view",
      "type": "function"
    },
    {
      "inputs": [
        {
          "internalType": "address",
          "name": "",
          "type": "address"
        }
      ],
      "name": "lockedBalance",
      "outputs": [
        {
          "internalType": "uint256",
          "name": "",
          "type": "uint256"
        }
      ],
      "stateMutability": "view",
      "type": "function"
    },
    {
      "inputs": [],
      "name": "nftContract",
      "outputs": [
        {
          "internalType": "contract ARPONFT",
          "name": "",
          "type": "address"
        }
      ],
      "stateMutability": "view",
      "type": "function"
    },
    {
      "inputs": [],
      "name": "owner",
      "outputs": [
        {
          "internalType": "address",
          "name": "",
          "type": "address"
        }
      ],
      "stateMutability": "view",
      "type": "function"
    },
    {
      "inputs": [],
      "name": "pause",
      "outputs": [],
      "stateMutability": "nonpayable",
      "type": "function"
    },
    {
      "inputs": [],
      "name": "paused",
      "outputs": [
        {
          "internalType": "bool",
          "name": "",
          "type": "bool"
        }
      ],
      "stateMutability": "view",
      "type": "function"
    },
    {
      "inputs": [
        {
          "internalType": "address",
          "name": "",
          "type": "address"
        }
      ],
      "name": "pendingReturns",
      "outputs": [
        {
          "internalType": "uint256",
          "name": "",
          "type": "uint256"
        }
      ],
      "stateMutability": "pure",
      "type": "function"
    },
    {
      "inputs": [
        {
          "internalType": "uint256",
          "name": "auctionId",
          "type": "uint256"
        }
      ],
      "name": "placeBid",
      "outputs": [],
      "stateMutability": "payable",
      "type": "function"
    },
    {
      "inputs": [],
      "name": "platformFeeBps",
      "outputs": [
        {
          "internalType": "uint256",
          "name": "",
          "type": "uint256"
        }
      ],
      "stateMutability": "view",
      "type": "function"
    },
    {
      "inputs": [],
      "name": "platformFeeRecipient",
      "outputs": [
        {
          "internalType": "address",
          "name": "",
          "type": "address"
        }
      ],
      "stateMutability": "view",
      "type": "function"
    },
    {
      "inputs": [],
      "name": "renounceOwnership",
      "outputs": [],
      "stateMutability": "nonpayable",
      "type": "function"
    },
    {
      "inputs": [
        {
          "internalType": "address",
          "name": "_hooks",
          "type": "address"
        }
      ],
      "name": "setHooks",
      "outputs": [],
      "stateMutability": "nonpayable",
      "type": "function"
    },
    {
      "inputs": [
        {
          "internalType": "uint256",
          "name": "_feeBps",
          "type": "uint256"
        }
      ],
      "name": "setPlatformFee",
      "outputs": [],
      "stateMutability": "nonpayable",
      "type": "function"
    },
    {
      "inputs": [
        {
          "internalType": "address",
          "name": "_recipient",
          "type": "address"
        }
      ],
      "name": "setPlatformFeeRecipient",
      "outputs": [],
      "stateMutability": "nonpayable",
      "type": "function"
    },
    {
      "inputs": [
        {
          "internalType": "uint256",
          "name": "auctionId",
          "type": "uint256"
        }
      ],
      "name": "settleAuction",
      "outputs": [],
      "stateMutability": "nonpayable",
      "type": "function"
    },
    {
      "inputs": [
        {
          "internalType": "address",
          "name": "newOwner",
          "type": "address"
        }
      ],
      "name": "transferOwnership",
      "outputs": [],
      "stateMutability": "nonpayable",
      "type": "function"
    },
    {
      "inputs": [],
      "name": "unpause",
      "outputs": [],
      "stateMutability": "nonpayable",
      "type": "function"
    },
    {
      "inputs": [
        {
          "internalType": "address",
          "name": "",
          "type": "address"
        }
      ],
      "name": "userBalance",
      "outputs": [
        {
          "internalType": "uint256",
          "name": "",
          "type": "uint256"
        }
      ],
      "stateMutability": "view",
      "type": "function"
    },
    {
      "inputs": [
        {
          "internalType": "uint256",
          "name": "amount",
          "type": "uint256"
        }
      ],
      "name": "withdraw",
      "outputs": [],
      "stateMutability": "nonpayable",
      "type": "function"
    }
  ],
  "bytecode": "0x60806040526103e86004553480156200001757600080fd5b506040516200269f3803806200269f8339810160408190526200003a91620001c4565b600160005533806200006757604051631e4fbdf760e01b8152600060048201526024015b60405180910390fd5b620000728162000155565b506001600160a01b038216620000cb5760405162461bcd60e51b815260206004820152601460248201527f496e76616c6964204e465420636f6e747261637400000000000000000000000060448201526064016200005e565b6001600160a01b038116620001235760405162461bcd60e51b815260206004820152601560248201527f496e76616c69642066656520726563697069656e74000000000000000000000060448201526064016200005e565b600280546001600160a01b039384166001600160a01b03199182161790915560058054929093169116179055620001fc565b600180546001600160a01b038381166001600160a01b0319831681179093556040519116919082907f8be0079c531659141344cd1fd0a4f28419497f9722a3daafe3b4186f6b6457e090600090a35050565b80516001600160a01b0381168114620001bf57600080fd5b919050565b60008060408385031215620001d857600080fd5b620001e383620001a7565b9150620001f360208401620001a7565b90509250929050565b612493806200020c6000396000f3fe6080604052600436106101f95760003560e01c806378bd79351161010d578063c2f50a7a116100a0578063debe3c1d1161006f578063debe3c1d14610594578063e71f7b15146105a9578063eb13554f146105c9578063f2fde38b146105e9578063fb63daa11461060957600080fd5b8063c2f50a7a1461053e578063cd7033c414610554578063d56d229d14610574578063d789a68d1461059457600080fd5b8063930e79f1116100dc578063930e79f1146104ae57806396b5a755146104de5780639979ef45146104fe5780639ae697bf1461051157600080fd5b806378bd79351461041a5780637f21d498146104475780638456cb59146104675780638da5cb5b1461047c57600080fd5b80632e1a7d4d11610190578063571a26a01161015f578063571a26a0146103645780635c975abb1461039a5780635db7bedc146103c55780636c24a76f146103e5578063715018a61461040557600080fd5b80632e1a7d4d146102f85780632e993611146103185780633f4ba83a146103385780633fb351781461034d57600080fd5b8063218445e2116101cc578063218445e21461029557806322dcd13e146102ab57806326b387bb146102c15780632ad71573146102e257600080fd5b80630103c92b146101fe57806312e8e2c31461023e57806314414cc0146102605780631871e24314610275575b600080fd5b34801561020a57600080fd5b5061022b610219366004611f03565b60086020526000908152604090205481565b6040519081526020015b60405180910390f35b34801561024a57600080fd5b5061025e610259366004611f1e565b610629565b005b34801561026c57600080fd5b5061022b606481565b34801561028157600080fd5b5061025e610290366004611f03565b6106bc565b3480156102a157600080fd5b5061022b6103e881565b3480156102b757600080fd5b5061022b60045481565b3480156102cd57600080fd5b5061022b6102dc366004611f03565b50600090565b3480156102ee57600080fd5b5061022b60065481565b34801561030457600080fd5b5061025e610313366004611f1e565b61072e565b34801561032457600080fd5b5061025e610333366004611f1e565b61093a565b34801561034457600080fd5b5061025e610ee3565b34801561035957600080fd5b5061022b62093a8081565b34801561037057600080fd5b5061038461037f366004611f1e565b610ef5565b6040516102359a99989796959493929190611f7d565b3480156103a657600080fd5b50600154600160a01b900460ff165b6040519015158152602001610235565b3480156103d157600080fd5b5061022b6103e0366004611fea565b610fe8565b3480156103f157600080fd5b5061022b610400366004611f03565b611378565b34801561041157600080fd5b5061025e6113ac565b34801561042657600080fd5b5061043a610435366004611f1e565b6113be565b6040516102359190612089565b34801561045357600080fd5b5061022b610462366004611f1e565b61155a565b34801561047357600080fd5b5061025e6115b1565b34801561048857600080fd5b506001546001600160a01b03165b6040516001600160a01b039091168152602001610235565b3480156104ba57600080fd5b5061022b6104c9366004611f1e565b60009081526007602052604090206003015490565b3480156104ea57600080fd5b5061025e6104f9366004611f1e565b6115c1565b61025e61050c366004611f1e565b6116c5565b34801561051d57600080fd5b5061022b61052c366004611f03565b60096020526000908152604090205481565b34801561054a57600080fd5b5061022b61012c81565b34801561056057600080fd5b50600354610496906001600160a01b031681565b34801561058057600080fd5b50600254610496906001600160a01b031681565b3480156105a057600080fd5b5061022b600a81565b3480156105b557600080fd5b506103b56105c4366004611f1e565b611c63565b3480156105d557600080fd5b50600554610496906001600160a01b031681565b3480156105f557600080fd5b5061025e610604366004611f03565b611cbc565b34801561061557600080fd5b5061025e610624366004611f03565b611cf7565b610631611d51565b6103e88111156106775760405162461bcd60e51b815260206004820152600c60248201526b08ccaca40e8dede40d0d2ced60a31b60448201526064015b60405180910390fd5b600480549082905560408051828152602081018490527fd347e206f25a89b917fc9482f1a2d294d749baa4dc9bde7fb495ee11fe491643910160405180910390a15050565b6106c4611d51565b6001600160a01b03811661070c5760405162461bcd60e51b815260206004820152600f60248201526e496e76616c6964206164647265737360881b604482015260640161066e565b600580546001600160a01b0319166001600160a01b0392909216919091179055565b610736611d7e565b6000811161077b5760405162461bcd60e51b81526020600482015260126024820152710416d6f756e74206d757374206265203e20360741b604482015260640161066e565b336000908152600860205260409020548111156107d15760405162461bcd60e51b8152602060048201526014602482015273496e73756666696369656e742062616c616e636560601b604482015260640161066e565b3360009081526009602090815260408083205460089092528220546107f69190612156565b9050808211156108485760405162461bcd60e51b815260206004820152601f60248201527f416d6f756e74206973206c6f636b656420696e20616374697665206269647300604482015260640161066e565b3360009081526008602052604081208054849290610867908490612156565b9091555050604051600090339084908381818185875af1925050503d80600081146108ae576040519150601f19603f3d011682016040523d82523d6000602084013e6108b3565b606091505b50509050806108f65760405162461bcd60e51b815260206004820152600f60248201526e151c985b9cd9995c8819985a5b1959608a1b604482015260640161066e565b60405183815233907f7fcf532c15f0a6db0bd6d0e038bea71d30d808c7d98cb3bf7268a95bf5081b659060200160405180910390a250506109376001600055565b50565b610942611d7e565b61094a611da8565b60008181526007602052604090206006810154600160a81b900460ff16156109a85760405162461bcd60e51b8152602060048201526011602482015270105d58dd1a5bdb8818d85b98d95b1b1959607a1b604482015260640161066e565b6006810154600160a01b900460ff16156109f65760405162461bcd60e51b815260206004820152600f60248201526e105b1c9958591e481cd95d1d1b1959608a1b604482015260640161066e565b8060030154421015610a3e5760405162461bcd60e51b8152602060048201526011602482015270105d58dd1a5bdb881b9bdd08195b991959607a1b604482015260640161066e565b60068101546001600160a01b0316610a825760405162461bcd60e51b81526020600482015260076024820152664e6f206269647360c81b604482015260640161066e565b6003546001600160a01b031615610b845760035460068201546005830154604051630c332eb560e41b8152600481018690526001600160a01b0392831660248201526044810191909152600092919091169063c332eb50906064016020604051808303816000875af1158015610afc573d6000803e3d6000fd5b505050506040513d601f19601f82011682018060405250810190610b209190612169565b90506001600160e01b03198116630c332eb560e41b14610b825760405162461bcd60e51b815260206004820152601860248201527f486f6f6b2072656a656374656420736574746c656d656e740000000000000000604482015260640161066e565b505b60068101805460ff60a01b198116600160a01b179091556002546001830154604051631109bad360e11b81526000936001600160a01b039384169363221375a693610bdd939282169291169060078801906004016121cd565b6020604051808303816000875af1158015610bfc573d6000803e3d6000fd5b505050506040513d601f19601f82011682018060405250810190610c209190612276565b808355600583015460068401546001600160a01b031660008181526008602052604081208054949550929391928492909190610c5d908490612156565b90915550506001600160a01b03811660009081526009602052604081208054849290610c8a908490612156565b909155505060045460009061271090610ca3908561228f565b610cad91906122a6565b90506000610cbb8285612156565b90508115610d5e576005546040516000916001600160a01b03169084908381818185875af1925050503d8060008114610d10576040519150601f19603f3d011682016040523d82523d6000602084013e610d15565b606091505b5050905080610d5c5760405162461bcd60e51b8152602060048201526013602482015272119959481d1c985b9cd9995c8819985a5b1959606a1b604482015260640161066e565b505b60018601546040516000916001600160a01b03169083908381818185875af1925050503d8060008114610dad576040519150601f19603f3d011682016040523d82523d6000602084013e610db2565b606091505b5050905080610dfb5760405162461bcd60e51b8152602060048201526015602482015274105c9d1a5cdd081c185e5b595b9d0819985a5b1959605a1b604482015260640161066e565b60408051868152602081018890526001600160a01b038616918a917ff3f2616e1974d63dd639b6a9ee3bb862a76b9bb4909e0a92a1e95b475e3821b7910160405180910390a36003546001600160a01b031615610ed2576003546040516349ef81f560e11b8152600481018a90526001600160a01b03868116602483015260448201899052909116906393df03ea906064016020604051808303816000875af1158015610eac573d6000803e3d6000fd5b505050506040513d601f19601f82011682018060405250810190610ed09190612169565b505b505050505050506109376001600055565b610eeb611d51565b610ef3611dd3565b565b60076020819052600091825260409091208054600182015460028301546003840154600485015460058601546006870154978701805496986001600160a01b039687169895979496939592949381169360ff600160a01b8304811694600160a81b909304169290610f6590612193565b80601f0160208091040260200160405190810160405280929190818152602001828054610f9190612193565b8015610fde5780601f10610fb357610100808354040283529160200191610fde565b820191906000526020600020905b815481529060010190602001808311610fc157829003601f168201915b505050505090508a565b6000610ff2611d51565b610ffa611da8565b6001600160a01b0387166110415760405162461bcd60e51b815260206004820152600e60248201526d125b9d985b1a5908185c9d1a5cdd60921b604482015260640161066e565b428610156110865760405162461bcd60e51b815260206004820152601260248201527114dd185c9d081d1a5b59481a5b881c185cdd60721b604482015260640161066e565b61012c8510156110cd5760405162461bcd60e51b8152602060048201526012602482015271111d5c985d1a5bdb881d1bdbc81cda1bdc9d60721b604482015260640161066e565b62093a808511156111145760405162461bcd60e51b81526020600482015260116024820152704475726174696f6e20746f6f206c6f6e6760781b604482015260640161066e565b6000841161115a5760405162461bcd60e51b8152602060048201526013602482015272052657365727665206d757374206265203e203606c1b604482015260640161066e565b8161119f5760405162461bcd60e51b815260206004820152601560248201527413595d1859185d1848155492481c995c5d5a5c9959605a1b604482015260640161066e565b6006805490819060006111b1836122c8565b919050555060405180610140016040528060008152602001896001600160a01b0316815260200188815260200187896111ea91906122e1565b81526020018681526020016000815260200160006001600160a01b0316815260200160001515815260200160001515815260200185858080601f01602080910402602001604051908101604052809392919081815260200183838082843760009201829052509390945250508381526007602081815260409283902085518155908501516001820180546001600160a01b0319166001600160a01b03928316179055928501516002820155606085015160038201556080850151600482015560a0850151600582015560c085015160068201805460e0880151610100890151939096166001600160a81b031990911617600160a01b951515959095029490941760ff60a81b1916600160a81b91151591909102179092556101208401519192508201906113179082612359565b5050506001600160a01b038816817f3654a00f91dd0ac6ecaadbc1445136cdbd8135727403afe6a6ef06cc482d256f896113518a826122e1565b898989604051611365959493929190612419565b60405180910390a3979650505050505050565b6001600160a01b03811660009081526009602090815260408083205460089092528220546113a69190612156565b92915050565b6113b4611d51565b610ef36000611e28565b61142a6040518061014001604052806000815260200160006001600160a01b031681526020016000815260200160008152602001600081526020016000815260200160006001600160a01b03168152602001600015158152602001600015158152602001606081525090565b6000828152600760208181526040928390208351610140810185528154815260018201546001600160a01b03908116938201939093526002820154948101949094526003810154606085015260048101546080850152600581015460a0850152600681015491821660c085015260ff600160a01b83048116151560e0860152600160a81b90920490911615156101008401529081018054610120840191906114d190612193565b80601f01602080910402602001604051908101604052809291908181526020018280546114fd90612193565b801561154a5780601f1061151f5761010080835404028352916020019161154a565b820191906000526020600020905b81548152906001019060200180831161152d57829003601f168201915b5050505050815250509050919050565b60008181526007602052604081206005810154820361157d576004015492915050565b61271060648260050154611591919061228f565b61159b91906122a6565b81600501546115aa91906122e1565b9392505050565b6115b9611d51565b610ef3611e7a565b6115c9611d51565b60008181526007602052604090206006810154600160a01b900460ff161580156115ff57506006810154600160a81b900460ff16155b61163b5760405162461bcd60e51b815260206004820152600d60248201526c496e76616c696420737461746560981b604482015260640161066e565b60068101546001600160a01b0316156116815760405162461bcd60e51b8152602060048201526008602482015267486173206269647360c01b604482015260640161066e565b60068101805460ff60a81b1916600160a81b17905560405182907f2809c7e17bf978fbc7194c0a694b638c4215e9140cacc6c38ca36010b45697df90600090a25050565b6116cd611d7e565b6116d5611da8565b34156117355733600090815260086020526040812080543492906116fa9084906122e1565b909155505060405134815233907f9936746a4565f9766fa768f88f56a7487c78780ac179562773d1c75c5269537e9060200160405180910390a25b6003546001600160a01b03161561181a576003546040516334d66bcf60e01b8152600481018390523360248201523460448201526000916001600160a01b0316906334d66bcf906064016020604051808303816000875af115801561179e573d6000803e3d6000fd5b505050506040513d601f19601f820116820180604052508101906117c29190612169565b90506001600160e01b031981166334d66bcf60e01b146118185760405162461bcd60e51b8152602060048201526011602482015270121bdbdac81c995a9958dd195908189a59607a1b604482015260640161066e565b505b60008181526007602052604090206006810154600160a81b900460ff16156118785760405162461bcd60e51b8152602060048201526011602482015270105d58dd1a5bdb8818d85b98d95b1b1959607a1b604482015260640161066e565b6006810154600160a01b900460ff16156118c65760405162461bcd60e51b815260206004820152600f60248201526e105d58dd1a5bdb881cd95d1d1b1959608a1b604482015260640161066e565b80600201544210156119105760405162461bcd60e51b8152602060048201526013602482015272105d58dd1a5bdb881b9bdd081cdd185c9d1959606a1b604482015260640161066e565b806003015442106119535760405162461bcd60e51b815260206004820152600d60248201526c105d58dd1a5bdb88195b991959609a1b604482015260640161066e565b60018101546001600160a01b031633036119a35760405162461bcd60e51b8152602060048201526011602482015270105c9d1a5cdd0818d85b9b9bdd08189a59607a1b604482015260640161066e565b60006119ae8361155a565b6006830154909150600090336001600160a01b03909116036119d1575060058201545b336000908152600960205260408120546119ec908390612156565b33600090815260086020526040902054611a069190612156565b9050600080856005015411611a1f578460040154611a4d565b6127106103e88660050154611a34919061228f565b611a3e91906122a6565b8560050154611a4d91906122e1565b90506000600a428760030154611a639190612156565b1115905084831015611a7a57505050505050611c59565b600686015460058701546001600160a01b03909116908115611ac4576001600160a01b03821660009081526009602052604081208054839290611abe908490612156565b90915550505b6000848611611ad35785611ad5565b845b905087811015611b1b5760405162461bcd60e51b81526020600482015260116024820152704269642062656c6f77206d696e696d756d60781b604482015260640161066e565b3360009081526009602052604081208054839290611b3a9084906122e1565b9091555050600589018190556006890180546001600160a01b0319163317905560008415611b8157600a8a6003016000828254611b7791906122e1565b9091555060019150505b60408051838152821515602082015233918d917f8f06251a01f1c60f43d914574d31d4eb5be776df9d23e7f94e7c07c578b9753d910160405180910390a36003546001600160a01b031615611c4e57600354604051630e075efb60e21b8152600481018d9052336024820152604481018490526001600160a01b039091169063381d7bec906064016020604051808303816000875af1158015611c28573d6000803e3d6000fd5b505050506040513d601f19601f82011682018060405250810190611c4c9190612169565b505b505050505050505050505b6109376001600055565b60008181526007602052604081206006810154600160a81b900460ff16158015611c9957506006810154600160a01b900460ff16155b8015611ca9575080600201544210155b80156115aa575060030154421092915050565b611cc4611d51565b6001600160a01b038116611cee57604051631e4fbdf760e01b81526000600482015260240161066e565b61093781611e28565b611cff611d51565b600380546001600160a01b038381166001600160a01b0319831681179093556040519116919082907f07800184329fc703e7d9d7939d8f50cb2707ef432545686fecb2f11ae254212c90600090a35050565b6001546001600160a01b03163314610ef35760405163118cdaa760e01b815233600482015260240161066e565b600260005403611da157604051633ee5aeb560e01b815260040160405180910390fd5b6002600055565b600154600160a01b900460ff1615610ef35760405163d93c066560e01b815260040160405180910390fd5b611ddb611ebd565b6001805460ff60a01b191690557f5db9ee0a495bf2e6ff9c91a7834c1ba4fdd244a5e8aa4e537bd38aeae4b073aa335b6040516001600160a01b03909116815260200160405180910390a1565b600180546001600160a01b038381166001600160a01b0319831681179093556040519116919082907f8be0079c531659141344cd1fd0a4f28419497f9722a3daafe3b4186f6b6457e090600090a35050565b611e82611da8565b6001805460ff60a01b1916600160a01b1790557f62e78cea01bee320cd4e420270b5ea74000d11b0c9f74754ebdbfc544b05a258611e0b3390565b600154600160a01b900460ff16610ef357604051638dfc202b60e01b815260040160405180910390fd5b80356001600160a01b0381168114611efe57600080fd5b919050565b600060208284031215611f1557600080fd5b6115aa82611ee7565b600060208284031215611f3057600080fd5b5035919050565b6000815180845260005b81811015611f5d57602081850181015186830182015201611f41565b506000602082860101526020601f19601f83011685010191505092915050565b60006101408c835260018060a01b03808d1660208501528b60408501528a60608501528960808501528860a085015280881660c08501525085151560e084015284151561010084015280610120840152611fd981840185611f37565b9d9c50505050505050505050505050565b60008060008060008060a0878903121561200357600080fd5b61200c87611ee7565b9550602087013594506040870135935060608701359250608087013567ffffffffffffffff8082111561203e57600080fd5b818901915089601f83011261205257600080fd5b81358181111561206157600080fd5b8a602082850101111561207357600080fd5b6020830194508093505050509295509295509295565b6020815281516020820152600060208301516120b060408401826001600160a01b03169052565b506040830151606083015260608301516080830152608083015160a083015260a083015160c083015260c08301516120f360e08401826001600160a01b03169052565b5060e08301516101006121098185018315159052565b840151905061012061211e8482018315159052565b840151610140848101529050612138610160840182611f37565b949350505050565b634e487b7160e01b600052601160045260246000fd5b818103818111156113a6576113a6612140565b60006020828403121561217b57600080fd5b81516001600160e01b0319811681146115aa57600080fd5b600181811c908216806121a757607f821691505b6020821081036121c757634e487b7160e01b600052602260045260246000fd5b50919050565b6001600160a01b038481168252831660208083019190915260606040830152825460009182916121fc81612193565b806060870152608060018084166000811461221e576001811461223857612266565b60ff1985168984015283151560051b890183019650612266565b896000528560002060005b8581101561225e5781548b8201860152908301908701612243565b8a0184019750505b50949a9950505050505050505050565b60006020828403121561228857600080fd5b5051919050565b80820281158282048414176113a6576113a6612140565b6000826122c357634e487b7160e01b600052601260045260246000fd5b500490565b6000600182016122da576122da612140565b5060010190565b808201808211156113a6576113a6612140565b634e487b7160e01b600052604160045260246000fd5b601f82111561235457600081815260208120601f850160051c810160208610156123315750805b601f850160051c820191505b818110156123505782815560010161233d565b5050505b505050565b815167ffffffffffffffff811115612373576123736122f4565b612387816123818454612193565b8461230a565b602080601f8311600181146123bc57600084156123a45750858301515b600019600386901b1c1916600185901b178555612350565b600085815260208120601f198616915b828110156123eb578886015182559484019460019091019084016123cc565b50858210156124095787850151600019600388901b60f8161c191681555b5050505050600190811b01905550565b85815284602082015283604082015260806060820152816080820152818360a0830137600081830160a090810191909152601f909201601f1916010194935050505056fea2646970667358221220fc26afeb893795c3a529a1463e77b4d7dc42ab46bdae7f353baaedbe640031c564736f6c63430008140033",
  "linkReferences": {},
  "deployedLinkReferences": {}
}