{
  "_format": "hh-sol-artifact-1",
  "contractName": "ARPONFT",
  "sourceName": "contracts/AuctionHouse.sol",
  "abi": [
    {
      "inputs": [],
      "stateMutability": "nonpayable",
      "type": "constructor"
    },
    {
      "inputs": [
        {
          "internalType": "address",
          "name": "sender",
          "type": "address"
        },
        {
          "internalType": "uint256",
          "name": "tokenId",
          "type": "uint256"
        },
        {
          "internalType": "address",
          "name": "owner",
          "type": "address"
        }
      ],
      "name": "ERC721IncorrectOwner",
      "type": "error"
    },
    {
      "inputs": [
        {
          "internalType": "address",
          "name": "operator",
          "type": "address"
        },
        {
          "internalType": "uint256",
          "name": "tokenId",
          "type": "uint256"
        }
      ],
      "name": "ERC721InsufficientApproval",
      "type": "error"
    },
    {
      "inputs": [
        {
          "internalType": "address",
          "name": "approver",
          "type": "address"
        }
      ],
      "name": "ERC721InvalidApprover",
      "type": "error"
    },
    {
      "inputs": [
        {
          "internalType": "address",
          "name": "operator",
          "type": "address"
        }
      ],
      "name": "ERC721InvalidOperator",
      "type": "error"
    },
    {
      "inputs": [
        {
          "internalType": "address",
          "name": "owner",
          "type": "address"
        }
      ],
      "name": "ERC721InvalidOwner",
      "type": "error"
    },
    {
      "inputs": [
        {
          "internalType": "address",
          "name": "receiver",
          "type": "address"
        }
      ],
      "name": "ERC721InvalidReceiver",
      "type": "error"
    },
    {
      "inputs": [
        {
          "internalType": "address",
          "name": "sender",
          "type": "address"
        }
      ],
      "name": "ERC721InvalidSender",
      "type": "error"
    },
    {
      "inputs": [
        {
          "internalType": "uint256",
          "name": "tokenId",
          "type": "uint256"
        }
      ],
      "name": "ERC721NonexistentToken",
      "type": "error"
    },
    {
      "inputs": [
        {
          "internalType": "address",
          "name": "owner",
          "type": "address"
        }
      ],
      "name": "OwnableInvalidOwner",
      "type": "error"
    },
    {
      "inputs": [
        {
          "internalType": "address",
          "name": "account",
          "type": "address"
        }
      ],
      "name": "OwnableUnauthorizedAccount",
      "type": "error"
    },
    {
      "anonymous": false,
      "inputs": [
        {
          "indexed": true,
          "internalType": "address",
          "name": "owner",
          "type": "address"
        },
        {
          "indexed": true,
          "internalType": "address",
          "name": "approved",
          "type": "address"
        },
        {
          "indexed": true,
          "internalType": "uint256",
          "name": "tokenId",
          "type": "uint256"
        }
      ],
      "name": "Approval",
      "type": "event"
    },
    {
      "anonymous": false,
      "inputs": [
        {
          "indexed": true,
          "internalType": "address",
          "name": "owner",
          "type": "address"
        },
        {
          "indexed": true,
          "internalType": "address",
          "name": "operator",
          "type": "address"
        },
        {
          "indexed": false,
          "internalType": "bool",
          "name": "approved",
          "type": "bool"
        }
      ],
      "name": "ApprovalForAll",
      "type": "event"
    },
    {
      "anonymous": false,
      "inputs": [
        {
          "indexed": true,
          "internalType": "address",
          "name": "oldAddress",
          "type": "address"
        },
        {
          "indexed": true,
          "internalType": "address",
          "name": "newAddress",
          "type": "address"
        }
      ],
      "name": "AuctionHouseUpdated",
      "type": "event"
    },
    {
      "anonymous": false,
      "inputs": [
        {
          "indexed": false,
          "internalType": "uint256",
          "name": "_fromTokenId",
          "type": "uint256"
        },
        {
          "indexed": false,
          "internalType": "uint256",
          "name": "_toTokenId",
          "type": "uint256"
        }
      ],
      "name": "BatchMetadataUpdate",
      "type": "event"
    },
    {
      "anonymous": false,
      "inputs": [
        {
          "indexed": false,
          "internalType": "uint256",
          "name": "_tokenId",
          "type": "uint256"
        }
      ],
      "name": "MetadataUpdate",
      "type": "event"
    },
    {
      "anonymous": false,
      "inputs": [
        {
          "indexed": true,
          "internalType": "uint256",
          "name": "tokenId",
          "type": "uint256"
        },
        {
          "indexed": true,
          "internalType": "address",
          "name": "artist",
          "type": "address"
        },
        {
          "indexed": false,
          "internalType": "string",
          "name": "metadataURI",
          "type": "string"
        }
      ],
      "name": "NFTMinted",
      "type": "event"
    },
    {
      "anonymous": false,
      "inputs": [
        {
          "indexed": true,
          "internalType": "address",
          "name": "previousOwner",
          "type": "address"
        },
        {
          "indexed": true,
          "internalType": "address",
          "name": "newOwner",
          "type": "address"
        }
      ],
      "name": "OwnershipTransferred",
      "type": "event"
    },
    {
      "anonymous": false,
      "inputs": [
        {
          "indexed": true,
          "internalType": "address",
          "name": "from",
          "type": "address"
        },
        {
          "indexed": true,
          "internalType": "address",
          "name": "to",
          "type": "address"
        },
        {
          "indexed": true,
          "internalType": "uint256",
          "name": "tokenId",
          "type": "uint256"
        }
      ],
      "name": "Transfer",
      "type": "event"
    },
    {
      "inputs": [
        {
          "internalType": "address",
          "name": "to",
          "type": "address"
        },
        {
          "internalType": "uint256",
          "name": "tokenId",
          "type": "uint256"
        }
      ],
      "name": "approve",
      "outputs": [],
      "stateMutability": "nonpayable",
      "type": "function"
    },
    {
      "inputs": [],
      "name": "auctionHouse",
      "outputs": [
        {
          "internalType": "address",
          "name": "",
          "type": "address"
        }
      ],
      "stateMutability": "view",
      "type": "function"
    },
    {
      "inputs": [
        {
          "internalType": "address",
          "name": "owner",
          "type": "address"
        }
      ],
      "name": "balanceOf",
      "outputs": [
        {
          "internalType": "uint256",
          "name": "",
          "type": "uint256"
        }
      ],
      "stateMutability": "view",
      "type": "function"
    },
    {
      "inputs": [
        {
          "internalType": "uint256",
          "name": "tokenId",
          "type": "uint256"
        }
      ],
      "name": "getApproved",
      "outputs": [
        {
          "internalType": "address",
          "name": "",
          "type": "address"
        }
      ],
      "stateMutability": "view",
      "type": "function"
    },
    {
      "inputs": [
        {
          "internalType": "uint256",
          "name": "tokenId",
          "type": "uint256"
        }
      ],
      "name": "getArtist",
      "outputs": [
        {
          "internalType": "address",
          "name": "",
          "type": "address"
        }
      ],
      "stateMutability": "view",
      "type": "function"
    },
    {
      "inputs": [
        {
          "internalType": "address",
          "name": "owner",
          "type": "address"
        },
        {
          "internalType": "address",
          "name": "operator",
          "type": "address"
        }
      ],
      "name": "isApprovedForAll",
      "outputs": [
        {
          "internalType": "bool",
          "name": "",
          "type": "bool"
        }
      ],
      "stateMutability": "view",
      "type": "function"
    },
    {
      "inputs": [
        {
          "internalType": "address",
          "name": "to",
          "type": "address"
        },
        {
          "internalType": "address",
          "name": "artist",
          "type": "address"
        },
        {
          "internalType": "string",
          "name": "metadataURI",
          "type": "string"
        }
      ],
      "name": "mint",
      "outputs": [
        {
          "internalType": "uint256",
          "name": "",
          "type": "uint256"
        }
      ],
      "stateMutability": "nonpayable",
      "type": "function"
    },
    {
      "inputs": [],
      "name": "name",
      "outputs": [
        {
          "internalType": "string",
          "name": "",
          "type": "string"
        }
      ],
      "stateMutability": "view",
      "type": "function"
    },
    {
      "inputs": [],
      "name": "owner",
      "outputs": [
        {
          "internalType": "address",
          "name": "",
          "type": "address"
        }
      ],
      "stateMutability": "view",
      "type": "function"
    },
    {
      "inputs": [
        {
          "internalType": "uint256",
          "name": "tokenId",
          "type": "uint256"
        }
      ],
      "name": "ownerOf",
      "outputs": [
        {
          "internalType": "address",
          "name": "",
          "type": "address"
        }
      ],
      "stateMutability": "view",
      "type": "function"
    },
    {
      "inputs": [],
      "name": "renounceOwnership",
      "outputs": [],
      "stateMutability": "nonpayable",
      "type": "function"
    },
    {
      "inputs": [
        {
          "internalType": "address",
          "name": "from",
          "type": "address"
        },
        {
          "internalType": "address",
          "name": "to",
          "type": "address"
        },
        {
          "internalType": "uint256",
          "name": "tokenId",
          "type": "uint256"
        }
      ],
      "name": "safeTransferFrom",
      "outputs": [],
      "stateMutability": "nonpayable",
      "type": "function"
    },
    {
      "inputs": [
        {
          "internalType": "address",
          "name": "from",
          "type": "address"
        },
        {
          "internalType": "address",
          "name": "to",
          "type": "address"
        },
        {
          "internalType": "uint256",
          "name": "tokenId",
          "type": "uint256"
        },
        {
          "internalType": "bytes",
          "name": "data",
          "type": "bytes"
        }
      ],
      "name": "safeTransferFrom",
      "outputs": [],
      "stateMutability": "nonpayable",
      "type": "function"
    },
    {
      "inputs": [
        {
          "internalType": "address",
          "name": "operator",
          "type": "address"
        },
        {
          "internalType": "bool",
          "name": "approved",
          "type": "bool"
        }
      ],
      "name": "setApprovalForAll",
      "outputs": [],
      "stateMutability": "nonpayable",
      "type": "function"
    },
    {
      "inputs": [
        {
          "internalType": "address",
          "name": "_auctionHouse",
          "type": "address"
        }
      ],
      "name": "setAuctionHouse",
      "outputs": [],
      "stateMutability": "nonpayable",
      "type": "function"
    },
    {
      "inputs": [
        {
          "internalType": "bytes4",
          "name": "interfaceId",
          "type": "bytes4"
        }
      ],
      "name": "supportsInterface",
      "outputs": [
        {
          "internalType": "bool",
          "name": "",
          "type": "bool"
        }
      ],
      "stateMutability": "view",
      "type": "function"
    },
    {
      "inputs": [],
      "name": "symbol",
      "outputs": [
        {
          "internalType": "string",
          "name": "",
          "type": "string"
        }
      ],
      "stateMutability": "view",
      "type": "function"
    },
    {
      "inputs": [
        {
          "internalType": "uint256",
          "name": "",
          "type": "uint256"
        }
      ],
      "name": "tokenArtist",
      "outputs": [
        {
          "internalType": "address",
          "name": "",
          "type": "address"
        }
      ],
      "stateMutability": "view",
      "type": "function"
    },
    {
      "inputs": [
        {
          "internalType": "uint256",
          "name": "tokenId",
          "type": "uint256"
        }
      ],
      "name": "tokenURI",
      "outputs": [
        {
          "internalType": "string",
          "name": "",
          "type": "string"
        }
      ],
      "stateMutability": "view",
      "type": "function"
    },
    {
      "inputs": [],
      "name": "totalSupply",
      "outputs": [
        {
          "internalType": "uint256",
          "name": "",
          "type": "uint256"
        }
      ],
      "stateMutability": "view",
      "type": "function"
    },
    {
      "inputs": [
        {
          "internalType": "address",
          "name": "from",
          "type": "address"
        },
        {
          "internalType": "address",
          "name": "to",
          "type": "address"
        },
        {
          "internalType": "uint256",
          "name": "tokenId",
          "type": "uint256"
        }
      ],
      "name": "transferFrom",
      "outputs": [],
      "stateMutability": "nonpayable",
      "type": "function"
    },
    {
      "inputs": [
        {
          "internalType": "address",
          "name": "newOwner",
          "type": "address"
        }
      ],
      "name": "transferOwnership",
      "outputs": [],
      "stateMutability": "nonpayable",
      "type": "function"
    }
  ],
  "bytecode": "0x60806040523480156200001157600080fd5b50336040518060400160405280600f81526020016e10549413c814dd1d591a5bc8139195608a1b815250604051806040016040528060048152602001634152504f60e01b8152508160009081620000699190620001b3565b506001620000788282620001b3565b5050506001600160a01b038116620000aa57604051631e4fbdf760e01b81526000600482015260240160405180910390fd5b620000b581620000bc565b506200027f565b600780546001600160a01b038381166001600160a01b0319831681179093556040519116919082907f8be0079c531659141344cd1fd0a4f28419497f9722a3daafe3b4186f6b6457e090600090a35050565b634e487b7160e01b600052604160045260246000fd5b600181811c908216806200013957607f821691505b6020821081036200015a57634e487b7160e01b600052602260045260246000fd5b50919050565b601f821115620001ae57600081815260208120601f850160051c81016020861015620001895750805b601f850160051c820191505b81811015620001aa5782815560010162000195565b5050505b505050565b81516001600160401b03811115620001cf57620001cf6200010e565b620001e781620001e0845462000124565b8462000160565b602080601f8311600181146200021f5760008415620002065750858301515b600019600386901b1c1916600185901b178555620001aa565b600085815260208120601f198616915b8281101562000250578886015182559484019460019091019084016200022f565b50858210156200026f5787850151600019600388901b60f8161c191681555b5050505050600190811b01905550565b611704806200028f6000396000f3fe608060405234801561001057600080fd5b50600436106101425760003560e01c8063715018a6116100b8578063b88d4fde1161007c578063b88d4fde146102a5578063c87b56dd146102b8578063e76d8952146102cb578063e985e9c5146102de578063ed9152c8146102f1578063f2fde38b1461030457600080fd5b8063715018a61461025e578063811dd0e2146102665780638da5cb5b1461027957806395d89b411461028a578063a22cb4651461029257600080fd5b8063221375a61161010a578063221375a6146101d657806323b872dd146101e957806342842e0e146101fc5780636352211e1461020f5780636f8f89ad1461022257806370a082311461024b57600080fd5b806301ffc9a71461014757806306fdde031461016f578063081812fc14610184578063095ea7b3146101af57806318160ddd146101c4575b600080fd5b61015a61015536600461118a565b610317565b60405190151581526020015b60405180910390f35b610177610342565b60405161016691906111f7565b61019761019236600461120a565b6103d4565b6040516001600160a01b039091168152602001610166565b6101c26101bd36600461123f565b6103fd565b005b6008545b604051908152602001610166565b6101c86101e4366004611269565b61040c565b6101c26101f73660046112f7565b61053f565b6101c261020a3660046112f7565b6105ca565b61019761021d36600461120a565b6105ea565b61019761023036600461120a565b600a602052600090815260409020546001600160a01b031681565b6101c8610259366004611333565b6105f5565b6101c261063d565b61019761027436600461120a565b610651565b6007546001600160a01b0316610197565b6101776106b7565b6101c26102a036600461134e565b6106c6565b6101c26102b33660046113a0565b6106d1565b6101776102c636600461120a565b6106e9565b6101c26102d9366004611333565b6107fa565b61015a6102ec36600461147c565b61089c565b600954610197906001600160a01b031681565b6101c2610312366004611333565b6108ca565b60006001600160e01b03198216632483248360e11b148061033c575061033c82610908565b92915050565b606060008054610351906114af565b80601f016020809104026020016040519081016040528092919081815260200182805461037d906114af565b80156103ca5780601f1061039f576101008083540402835291602001916103ca565b820191906000526020600020905b8154815290600101906020018083116103ad57829003601f168201915b5050505050905090565b60006103df82610958565b506000828152600460205260409020546001600160a01b031661033c565b610408828233610991565b5050565b6009546000906001600160a01b0316331461046e5760405162461bcd60e51b815260206004820152601b60248201527f4f6e6c792061756374696f6e20686f7573652063616e2063616c6c000000000060448201526064015b60405180910390fd5b600880549081906000610480836114e9565b919050555061048f868261099e565b6104cf8185858080601f0160208091040260200160405190810160405280939291908181526020018383808284376000920191909152506109b892505050565b6000818152600a60205260409081902080546001600160a01b0319166001600160a01b038816908117909155905182907f06becd955c918828f6e985541acbf49cc842c9e9bd569fffc7698e721ef135759061052e9088908890611510565b60405180910390a395945050505050565b6001600160a01b03821661056957604051633250574960e11b815260006004820152602401610465565b6000610576838333610a08565b9050836001600160a01b0316816001600160a01b0316146105c4576040516364283d7b60e01b81526001600160a01b0380861660048301526024820184905282166044820152606401610465565b50505050565b6105e5838383604051806020016040528060008152506106d1565b505050565b600061033c82610958565b60006001600160a01b038216610621576040516322718ad960e21b815260006004820152602401610465565b506001600160a01b031660009081526003602052604090205490565b610645610b01565b61064f6000610b2e565b565b6000600854821061069b5760405162461bcd60e51b8152602060048201526014602482015273151bdad95b88191bd95cc81b9bdd08195e1a5cdd60621b6044820152606401610465565b506000908152600a60205260409020546001600160a01b031690565b606060018054610351906114af565b610408338383610b80565b6106dc84848461053f565b6105c43385858585610c1f565b60606106f482610958565b506000828152600660205260408120805461070e906114af565b80601f016020809104026020016040519081016040528092919081815260200182805461073a906114af565b80156107875780601f1061075c57610100808354040283529160200191610787565b820191906000526020600020905b81548152906001019060200180831161076a57829003601f168201915b5050505050905060006107a560408051602081019091526000815290565b905080516000036107b7575092915050565b8151156107e95780826040516020016107d192919061153f565b60405160208183030381529060405292505050919050565b6107f284610d4a565b949350505050565b610802610b01565b6001600160a01b03811661084a5760405162461bcd60e51b815260206004820152600f60248201526e496e76616c6964206164647265737360881b6044820152606401610465565b600980546001600160a01b038381166001600160a01b0319831681179093556040519116919082907f8445674d8ddf4c0faeae8b339cbb2a830bf3ed6acf62cf7e03ed47613cb5e7cc90600090a35050565b6001600160a01b03918216600090815260056020908152604080832093909416825291909152205460ff1690565b6108d2610b01565b6001600160a01b0381166108fc57604051631e4fbdf760e01b815260006004820152602401610465565b61090581610b2e565b50565b60006001600160e01b031982166380ac58cd60e01b148061093957506001600160e01b03198216635b5e139f60e01b145b8061033c57506301ffc9a760e01b6001600160e01b031983161461033c565b6000818152600260205260408120546001600160a01b03168061033c57604051637e27328960e01b815260048101849052602401610465565b6105e58383836001610dbf565b610408828260405180602001604052806000815250610ec5565b60008281526006602052604090206109d082826115b4565b506040518281527ff8e1a15aba9398e019f0b49df1a4fde98ee17ae345cb5f6b5e2c27f5033e8ce79060200160405180910390a15050565b6000828152600260205260408120546001600160a01b0390811690831615610a3557610a35818486610edd565b6001600160a01b03811615610a7357610a52600085600080610dbf565b6001600160a01b038116600090815260036020526040902080546000190190555b6001600160a01b03851615610aa2576001600160a01b0385166000908152600360205260409020805460010190555b60008481526002602052604080822080546001600160a01b0319166001600160a01b0389811691821790925591518793918516917fddf252ad1be2c89b69c2b068fc378daa952ba7f163c4a11628f55a4df523b3ef91a4949350505050565b6007546001600160a01b0316331461064f5760405163118cdaa760e01b8152336004820152602401610465565b600780546001600160a01b038381166001600160a01b0319831681179093556040519116919082907f8be0079c531659141344cd1fd0a4f28419497f9722a3daafe3b4186f6b6457e090600090a35050565b6001600160a01b038216610bb257604051630b61174360e31b81526001600160a01b0383166004820152602401610465565b6001600160a01b03838116600081815260056020908152604080832094871680845294825291829020805460ff191686151590811790915591519182527f17307eab39ab6107e8899845ad3d59bd9653f200f220920489ca2b5937696c31910160405180910390a3505050565b6001600160a01b0383163b15610d4357604051630a85bd0160e11b81526001600160a01b0384169063150b7a0290610c61908890889087908790600401611674565b6020604051808303816000875af1925050508015610c9c575060408051601f3d908101601f19168201909252610c99918101906116b1565b60015b610d05573d808015610cca576040519150601f19603f3d011682016040523d82523d6000602084013e610ccf565b606091505b508051600003610cfd57604051633250574960e11b81526001600160a01b0385166004820152602401610465565b805160208201fd5b6001600160e01b03198116630a85bd0160e11b14610d4157604051633250574960e11b81526001600160a01b0385166004820152602401610465565b505b5050505050565b6060610d5582610958565b506000610d6d60408051602081019091526000815290565b90506000815111610d8d5760405180602001604052806000815250610db8565b80610d9784610f41565b604051602001610da892919061153f565b6040516020818303038152906040525b9392505050565b8080610dd357506001600160a01b03821615155b15610e95576000610de384610958565b90506001600160a01b03831615801590610e0f5750826001600160a01b0316816001600160a01b031614155b8015610e225750610e20818461089c565b155b15610e4b5760405163a9fbf51f60e01b81526001600160a01b0384166004820152602401610465565b8115610e935783856001600160a01b0316826001600160a01b03167f8c5be1e5ebec7d5bd14f71427d1e84f3dd0314c0f7b2291e5b200ac8c7c3b92560405160405180910390a45b505b5050600090815260046020526040902080546001600160a01b0319166001600160a01b0392909216919091179055565b610ecf8383610fd4565b6105e5336000858585610c1f565b610ee8838383611039565b6105e5576001600160a01b038316610f1657604051637e27328960e01b815260048101829052602401610465565b60405163177e802f60e01b81526001600160a01b038316600482015260248101829052604401610465565b60606000610f4e8361109c565b600101905060008167ffffffffffffffff811115610f6e57610f6e61138a565b6040519080825280601f01601f191660200182016040528015610f98576020820181803683370190505b5090508181016020015b600019016f181899199a1a9b1b9c1cb0b131b232b360811b600a86061a8153600a8504945084610fa257509392505050565b6001600160a01b038216610ffe57604051633250574960e11b815260006004820152602401610465565b600061100c83836000610a08565b90506001600160a01b038116156105e5576040516339e3563760e11b815260006004820152602401610465565b60006001600160a01b038316158015906107f25750826001600160a01b0316846001600160a01b031614806110735750611073848461089c565b806107f25750506000908152600460205260409020546001600160a01b03908116911614919050565b60008072184f03e93ff9f4daa797ed6e38ed64bf6a1f0160401b83106110db5772184f03e93ff9f4daa797ed6e38ed64bf6a1f0160401b830492506040015b6d04ee2d6d415b85acef81000000008310611107576d04ee2d6d415b85acef8100000000830492506020015b662386f26fc10000831061112557662386f26fc10000830492506010015b6305f5e100831061113d576305f5e100830492506008015b612710831061115157612710830492506004015b60648310611163576064830492506002015b600a831061033c5760010192915050565b6001600160e01b03198116811461090557600080fd5b60006020828403121561119c57600080fd5b8135610db881611174565b60005b838110156111c25781810151838201526020016111aa565b50506000910152565b600081518084526111e38160208601602086016111a7565b601f01601f19169290920160200192915050565b602081526000610db860208301846111cb565b60006020828403121561121c57600080fd5b5035919050565b80356001600160a01b038116811461123a57600080fd5b919050565b6000806040838503121561125257600080fd5b61125b83611223565b946020939093013593505050565b6000806000806060858703121561127f57600080fd5b61128885611223565b935061129660208601611223565b9250604085013567ffffffffffffffff808211156112b357600080fd5b818701915087601f8301126112c757600080fd5b8135818111156112d657600080fd5b8860208285010111156112e857600080fd5b95989497505060200194505050565b60008060006060848603121561130c57600080fd5b61131584611223565b925061132360208501611223565b9150604084013590509250925092565b60006020828403121561134557600080fd5b610db882611223565b6000806040838503121561136157600080fd5b61136a83611223565b91506020830135801515811461137f57600080fd5b809150509250929050565b634e487b7160e01b600052604160045260246000fd5b600080600080608085870312156113b657600080fd5b6113bf85611223565b93506113cd60208601611223565b925060408501359150606085013567ffffffffffffffff808211156113f157600080fd5b818701915087601f83011261140557600080fd5b8135818111156114175761141761138a565b604051601f8201601f19908116603f0116810190838211818310171561143f5761143f61138a565b816040528281528a602084870101111561145857600080fd5b82602086016020830137600060208483010152809550505050505092959194509250565b6000806040838503121561148f57600080fd5b61149883611223565b91506114a660208401611223565b90509250929050565b600181811c908216806114c357607f821691505b6020821081036114e357634e487b7160e01b600052602260045260246000fd5b50919050565b60006001820161150957634e487b7160e01b600052601160045260246000fd5b5060010190565b60208152816020820152818360408301376000818301604090810191909152601f909201601f19160101919050565b600083516115518184602088016111a7565b8351908301906115658183602088016111a7565b01949350505050565b601f8211156105e557600081815260208120601f850160051c810160208610156115955750805b601f850160051c820191505b81811015610d41578281556001016115a1565b815167ffffffffffffffff8111156115ce576115ce61138a565b6115e2816115dc84546114af565b8461156e565b602080601f83116001811461161757600084156115ff5750858301515b600019600386901b1c1916600185901b178555610d41565b600085815260208120601f198616915b8281101561164657888601518255948401946001909101908401611627565b50858210156116645787850151600019600388901b60f8161c191681555b5050505050600190811b01905550565b6001600160a01b03858116825284166020820152604081018390526080606082018190526000906116a7908301846111cb565b9695505050505050565b6000602082840312156116c357600080fd5b8151610db88161117456fea2646970667358221220bfca1ffe48dabb791cd264c37c21abd60926b5884f1881e74aa15a38f8c55cf564736f6c63430008140033",
  "linkReferences": {},
  "deployedLinkReferences": {}
}