{
  "_format": "hh-sol-artifact-1",
  "contractName": "AllowlistHook",
  "sourceName": "contracts/examples/AllowlistHook.sol",
  "abi": [
    {
      "inputs": [],
      "stateMutability": "nonpayable",
      "type": "constructor"
    },
    {
      "inputs": [
        {
          "internalType": "address",
          "name": "owner",
          "type": "address"
        }
      ],
      "name": "OwnableInvalidOwner",
      "type": "error"
    },
    {
      "inputs": [
        {
          "internalType": "address",
          "name": "account",
          "type": "address"
        }
      ],
      "name": "OwnableUnauthorizedAccount",
      "type": "error"
    },
    {
      "anonymous": false,
      "inputs": [
        {
          "indexed": true,
          "internalType": "address",
          "name": "account",
          "type": "address"
        }
      ],
      "name": "AddressAdded",
      "type": "event"
    },
    {
      "anonymous": false,
      "inputs": [
        {
          "indexed": true,
          "internalType": "address",
          "name": "account",
          "type": "address"
        }
      ],
      "name": "AddressRemoved",
      "type": "event"
    },
    {
      "anonymous": false,
      "inputs": [
        {
          "indexed": true,
          "internalType": "address",
          "name": "previousOwner",
          "type": "address"
        },
        {
          "indexed": true,
          "internalType": "address",
          "name": "newOwner",
          "type": "address"
        }
      ],
      "name": "OwnershipTransferred",
      "type": "event"
    },
    {
      "inputs": [
        {
          "internalType": "address[]",
          "name": "accounts",
          "type": "address[]"
        }
      ],
      "name": "addBatchToAllowlist",
      "outputs": [],
      "stateMutability": "nonpayable",
      "type": "function"
    },
    {
      "inputs": [
        {
          "internalType": "address",
          "name": "account",
          "type": "address"
        }
      ],
      "name": "addToAllowlist",
      "outputs": [],
      "stateMutability": "nonpayable",
      "type": "function"
    },
    {
      "inputs": [
        {
          "internalType": "uint256",
          "name": "",
          "type": "uint256"
        },
        {
          "internalType": "address",
          "name": "",
          "type": "address"
        },
        {
          "internalType": "uint256",
          "name": "",
          "type": "uint256"
        }
      ],
      "name": "afterPlaceBid",
      "outputs": [
        {
          "internalType": "bytes4",
          "name": "",
          "type": "bytes4"
        }
      ],
      "stateMutability": "pure",
      "type": "function"
    },
    {
      "inputs": [
        {
          "internalType": "uint256",
          "name": "",
          "type": "uint256"
        },
        {
          "internalType": "address",
          "name": "",
          "type": "address"
        },
        {
          "internalType": "uint256",
          "name": "",
          "type": "uint256"
        }
      ],
      "name": "afterSettle",
      "outputs": [
        {
          "internalType": "bytes4",
          "name": "",
          "type": "bytes4"
        }
      ],
      "stateMutability": "pure",
      "type": "function"
    },
    {
      "inputs": [
        {
          "internalType": "address",
          "name": "",
          "type": "address"
        }
      ],
      "name": "allowed",
      "outputs": [
        {
          "internalType": "bool",
          "name": "",
          "type": "bool"
        }
      ],
      "stateMutability": "view",
      "type": "function"
    },
    {
      "inputs": [
        {
          "internalType": "uint256",
          "name": "",
          "type": "uint256"
        },
        {
          "internalType": "address",
          "name": "bidder",
          "type": "address"
        },
        {
          "internalType": "uint256",
          "name": "",
          "type": "uint256"
        }
      ],
      "name": "beforePlaceBid",
      "outputs": [
        {
          "internalType": "bytes4",
          "name": "",
          "type": "bytes4"
        }
      ],
      "stateMutability": "view",
      "type": "function"
    },
    {
      "inputs": [
        {
          "internalType": "uint256",
          "name": "",
          "type": "uint256"
        },
        {
          "internalType": "address",
          "name": "",
          "type": "address"
        },
        {
          "internalType": "uint256",
          "name": "",
          "type": "uint256"
        }
      ],
      "name": "beforeSettle",
      "outputs": [
        {
          "internalType": "bytes4",
          "name": "",
          "type": "bytes4"
        }
      ],
      "stateMutability": "pure",
      "type": "function"
    },
    {
      "inputs": [],
      "name": "owner",
      "outputs": [
        {
          "internalType": "address",
          "name": "",
          "type": "address"
        }
      ],
      "stateMutability": "view",
      "type": "function"
    },
    {
      "inputs": [
        {
          "internalType": "address",
          "name": "account",
          "type": "address"
        }
      ],
      "name": "removeFromAllowlist",
      "outputs": [],
      "stateMutability": "nonpayable",
      "type": "function"
    },
    {
      "inputs": [],
      "name": "renounceOwnership",
      "outputs": [],
      "stateMutability": "nonpayable",
      "type": "function"
    },
    {
      "inputs": [
        {
          "internalType": "address",
          "name": "newOwner",
          "type": "address"
        }
      ],
      "name": "transferOwnership",
      "outputs": [],
      "stateMutability": "nonpayable",
      "type": "function"
    }
  ],
  "bytecode": "0x608060405234801561001057600080fd5b50338061003757604051631e4fbdf760e01b81526000600482015260240160405180910390fd5b61004081610046565b50610096565b600080546001600160a01b038381166001600160a01b0319831681178455604051919092169283917f8be0079c531659141344cd1fd0a4f28419497f9722a3daafe3b4186f6b6457e09190a35050565b6105f6806100a56000396000f3fe608060405234801561001057600080fd5b50600436106100a95760003560e01c80638da5cb5b116100715780638da5cb5b1461012c57806393df03ea14610147578063c332eb5014610164578063d63a8e1114610181578063f2fde38b146101b4578063f8e86ece146101c757600080fd5b806334d66bcf146100ae578063381d7bec146100df578063519cecce146100fc5780635da93d7e14610111578063715018a614610124575b600080fd5b6100c16100bc3660046104b7565b6101da565b6040516001600160e01b031990911681526020015b60405180910390f35b6100c16100ed3660046104b7565b630e075efb60e21b9392505050565b61010f61010a3660046104ec565b61024a565b005b61010f61011f366004610561565b610324565b61010f610375565b6000546040516001600160a01b0390911681526020016100d6565b6100c16101553660046104b7565b6349ef81f560e11b9392505050565b6100c16101723660046104b7565b630c332eb560e41b9392505050565b6101a461018f366004610561565b60016020526000908152604090205460ff1681565b60405190151581526020016100d6565b61010f6101c2366004610561565b610389565b61010f6101d5366004610561565b6103c7565b6001600160a01b03821660009081526001602052604081205460ff1661023a5760405162461bcd60e51b815260206004820152601060248201526f139bdd081bdb88185b1b1bdddb1a5cdd60821b60448201526064015b60405180910390fd5b506334d66bcf60e01b9392505050565b61025261041e565b60005b8181101561031f57600180600085858581811061027457610274610583565b90506020020160208101906102899190610561565b6001600160a01b031681526020810191909152604001600020805460ff19169115159190911790558282828181106102c3576102c3610583565b90506020020160208101906102d89190610561565b6001600160a01b03167fa226db3f664042183ee0281230bba26cbf7b5057e50aee7f25a175ff45ce4d7f60405160405180910390a28061031781610599565b915050610255565b505050565b61032c61041e565b6001600160a01b038116600081815260016020526040808220805460ff19169055517f24a12366c02e13fe4a9e03d86a8952e85bb74a456c16e4a18b6d8295700b74bb9190a250565b61037d61041e565b610387600061044b565b565b61039161041e565b6001600160a01b0381166103bb57604051631e4fbdf760e01b815260006004820152602401610231565b6103c48161044b565b50565b6103cf61041e565b6001600160a01b0381166000818152600160208190526040808320805460ff1916909217909155517fa226db3f664042183ee0281230bba26cbf7b5057e50aee7f25a175ff45ce4d7f9190a250565b6000546001600160a01b031633146103875760405163118cdaa760e01b8152336004820152602401610231565b600080546001600160a01b038381166001600160a01b0319831681178455604051919092169283917f8be0079c531659141344cd1fd0a4f28419497f9722a3daafe3b4186f6b6457e09190a35050565b80356001600160a01b03811681146104b257600080fd5b919050565b6000806000606084860312156104cc57600080fd5b833592506104dc6020850161049b565b9150604084013590509250925092565b600080602083850312156104ff57600080fd5b823567ffffffffffffffff8082111561051757600080fd5b818501915085601f83011261052b57600080fd5b81358181111561053a57600080fd5b8660208260051b850101111561054f57600080fd5b60209290920196919550909350505050565b60006020828403121561057357600080fd5b61057c8261049b565b9392505050565b634e487b7160e01b600052603260045260246000fd5b6000600182016105b957634e487b7160e01b600052601160045260246000fd5b506001019056fea26469706673582212200dfd33dc0f30db91d3050e2c3874af72b4afcc87e3ac7c99af2d12c6b43f6cc264736f6c63430008140033",
  "linkReferences": {},
  "deployedLinkReferences": {}
}