{
  "_format": "hh-sol-artifact-1",
  "contractName": "RewardsHook",
  "sourceName": "contracts/examples/RewardsHook.sol",
  "abi": [
    {
      "inputs": [
        {
          "internalType": "address",
          "name": "_rewardToken",
          "type": "address"
        }
      ],
      "stateMutability": "nonpayable",
      "type": "constructor"
    },
    {
      "inputs": [
        {
          "internalType": "address",
          "name": "owner",
          "type": "address"
        }
      ],
      "name": "OwnableInvalidOwner",
      "type": "error"
    },
    {
      "inputs": [
        {
          "internalType": "address",
          "name": "account",
          "type": "address"
        }
      ],
      "name": "OwnableUnauthorizedAccount",
      "type": "error"
    },
    {
      "anonymous": false,
      "inputs": [
        {
          "indexed": true,
          "internalType": "address",
          "name": "previousOwner",
          "type": "address"
        },
        {
          "indexed": true,
          "internalType": "address",
          "name": "newOwner",
          "type": "address"
        }
      ],
      "name": "OwnershipTransferred",
      "type": "event"
    },
    {
      "anonymous": false,
      "inputs": [
        {
          "indexed": false,
          "internalType": "string",
          "name": "rewardType",
          "type": "string"
        },
        {
          "indexed": false,
          "internalType": "uint256",
          "name": "oldAmount",
          "type": "uint256"
        },
        {
          "indexed": false,
          "internalType": "uint256",
          "name": "newAmount",
          "type": "uint256"
        }
      ],
      "name": "RewardAmountUpdated",
      "type": "event"
    },
    {
      "anonymous": false,
      "inputs": [
        {
          "indexed": true,
          "internalType": "address",
          "name": "recipient",
          "type": "address"
        },
        {
          "indexed": false,
          "internalType": "uint256",
          "name": "amount",
          "type": "uint256"
        },
        {
          "indexed": false,
          "internalType": "string",
          "name": "reason",
          "type": "string"
        }
      ],
      "name": "RewardSent",
      "type": "event"
    },
    {
      "inputs": [
        {
          "internalType": "uint256",
          "name": "",
          "type": "uint256"
        },
        {
          "internalType": "address",
          "name": "bidder",
          "type": "address"
        },
        {
          "internalType": "uint256",
          "name": "",
          "type": "uint256"
        }
      ],
      "name": "afterPlaceBid",
      "outputs": [
        {
          "internalType": "bytes4",
          "name": "",
          "type": "bytes4"
        }
      ],
      "stateMutability": "nonpayable",
      "type": "function"
    },
    {
      "inputs": [
        {
          "internalType": "uint256",
          "name": "",
          "type": "uint256"
        },
        {
          "internalType": "address",
          "name": "winner",
          "type": "address"
        },
        {
          "internalType": "uint256",
          "name": "",
          "type": "uint256"
        }
      ],
      "name": "afterSettle",
      "outputs": [
        {
          "internalType": "bytes4",
          "name": "",
          "type": "bytes4"
        }
      ],
      "stateMutability": "nonpayable",
      "type": "function"
    },
    {
      "inputs": [
        {
          "internalType": "uint256",
          "name": "",
          "type": "uint256"
        },
        {
          "internalType": "address",
          "name": "",
          "type": "address"
        },
        {
          "internalType": "uint256",
          "name": "",
          "type": "uint256"
        }
      ],
      "name": "beforePlaceBid",
      "outputs": [
        {
          "internalType": "bytes4",
          "name": "",
          "type": "bytes4"
        }
      ],
      "stateMutability": "pure",
      "type": "function"
    },
    {
      "inputs": [
        {
          "internalType": "uint256",
          "name": "",
          "type": "uint256"
        },
        {
          "internalType": "address",
          "name": "",
          "type": "address"
        },
        {
          "internalType": "uint256",
          "name": "",
          "type": "uint256"
        }
      ],
      "name": "beforeSettle",
      "outputs": [
        {
          "internalType": "bytes4",
          "name": "",
          "type": "bytes4"
        }
      ],
      "stateMutability": "pure",
      "type": "function"
    },
    {
      "inputs": [],
      "name": "owner",
      "outputs": [
        {
          "internalType": "address",
          "name": "",
          "type": "address"
        }
      ],
      "stateMutability": "view",
      "type": "function"
    },
    {
      "inputs": [],
      "name": "renounceOwnership",
      "outputs": [],
      "stateMutability": "nonpayable",
      "type": "function"
    },
    {
      "inputs": [],
      "name": "rewardPerBid",
      "outputs": [
        {
          "internalType": "uint256",
          "name": "",
          "type": "uint256"
        }
      ],
      "stateMutability": "view",
      "type": "function"
    },
    {
      "inputs": [],
      "name": "rewardPerWin",
      "outputs": [
        {
          "internalType": "uint256",
          "name": "",
          "type": "uint256"
        }
      ],
      "stateMutability": "view",
      "type": "function"
    },
    {
      "inputs": [],
      "name": "rewardToken",
      "outputs": [
        {
          "internalType": "contract IERC20",
          "name": "",
          "type": "address"
        }
      ],
      "stateMutability": "view",
      "type": "function"
    },
    {
      "inputs": [
        {
          "internalType": "uint256",
          "name": "amount",
          "type": "uint256"
        }
      ],
      "name": "setRewardPerBid",
      "outputs": [],
      "stateMutability": "nonpayable",
      "type": "function"
    },
    {
      "inputs": [
        {
          "internalType": "uint256",
          "name": "amount",
          "type": "uint256"
        }
      ],
      "name": "setRewardPerWin",
      "outputs": [],
      "stateMutability": "nonpayable",
      "type": "function"
    },
    {
      "inputs": [
        {
          "internalType": "address",
          "name": "newOwner",
          "type": "address"
        }
      ],
      "name": "transferOwnership",
      "outputs": [],
      "stateMutability": "nonpayable",
      "type": "function"
    },
    {
      "inputs": [
        {
          "internalType": "uint256",
          "name": "amount",
          "type": "uint256"
        }
      ],
      "name": "withdrawTokens",
      "outputs": [],
      "stateMutability": "nonpayable",
      "type": "function"
    }
  ],
  "bytecode": "0x6080604052678ac7230489e8000060025568056bc75e2d6310000060035534801561002957600080fd5b50604051610940380380610940833981016040819052610048916100ed565b338061006e57604051631e4fbdf760e01b81526000600482015260240160405180910390fd5b6100778161009d565b50600180546001600160a01b0319166001600160a01b039290921691909117905561011d565b600080546001600160a01b038381166001600160a01b0319831681178455604051919092169283917f8be0079c531659141344cd1fd0a4f28419497f9722a3daafe3b4186f6b6457e09190a35050565b6000602082840312156100ff57600080fd5b81516001600160a01b038116811461011657600080fd5b9392505050565b6108148061012c6000396000f3fe608060405234801561001057600080fd5b50600436106100cf5760003560e01c80638da5cb5b1161008c578063de34c87111610066578063de34c871146101be578063e75eb042146101c7578063f2fde38b146101da578063f7c618c1146101ed57600080fd5b80638da5cb5b1461016957806393df03ea1461018e578063c332eb50146101a157600080fd5b8063315a095d146100d457806334d66bcf146100e9578063381d7bec1461012457806352866cb114610137578063715018a61461014e5780637b3f011714610156575b600080fd5b6100e76100e236600461066f565b610200565b005b6101066100f73660046106a4565b6334d66bcf60e01b9392505050565b6040516001600160e01b031990911681526020015b60405180910390f35b6101066101323660046106a4565b610281565b61014060025481565b60405190815260200161011b565b6100e76103c6565b6100e761016436600461066f565b6103da565b6000546001600160a01b03165b6040516001600160a01b03909116815260200161011b565b61010661019c3660046106a4565b610428565b6101066101af3660046106a4565b630c332eb560e41b9392505050565b61014060035481565b6100e76101d536600461066f565b61056d565b6100e76101e83660046106d9565b6105af565b600154610176906001600160a01b031681565b6102086105f2565b60015460405163a9059cbb60e01b8152336004820152602481018390526001600160a01b039091169063a9059cbb906044016020604051808303816000875af1158015610259573d6000803e3d6000fd5b505050506040513d601f19601f8201168201806040525081019061027d91906106fb565b5050565b6002546001546040516370a0823160e01b8152306004820152600092916001600160a01b0316906370a0823190602401602060405180830381865afa1580156102ce573d6000803e3d6000fd5b505050506040513d601f19601f820116820180604052508101906102f2919061071d565b106103b65760015460025460405163a9059cbb60e01b81526001600160a01b038681166004830152602482019290925291169063a9059cbb906044016020604051808303816000875af115801561034d573d6000803e3d6000fd5b505050506040513d601f19601f8201168201806040525081019061037191906106fb565b50826001600160a01b03167f792af4ddd1dc413b17bea369ca90e7ae463cc96b773c936c70b33d8b08bc096f6002546040516103ad9190610736565b60405180910390a25b50630e075efb60e21b9392505050565b6103ce6105f2565b6103d8600061061f565b565b6103e26105f2565b60028054908290556040517ffe018eb82a0d14a29f8608883823f09c51d1924ca236b965faa558c7272628829061041c908390859061075f565b60405180910390a15050565b6003546001546040516370a0823160e01b8152306004820152600092916001600160a01b0316906370a0823190602401602060405180830381865afa158015610475573d6000803e3d6000fd5b505050506040513d601f19601f82011682018060405250810190610499919061071d565b1061055d5760015460035460405163a9059cbb60e01b81526001600160a01b038681166004830152602482019290925291169063a9059cbb906044016020604051808303816000875af11580156104f4573d6000803e3d6000fd5b505050506040513d601f19601f8201168201806040525081019061051891906106fb565b50826001600160a01b03167f792af4ddd1dc413b17bea369ca90e7ae463cc96b773c936c70b33d8b08bc096f6003546040516105549190610792565b60405180910390a25b506349ef81f560e11b9392505050565b6105756105f2565b60038054908290556040517ffe018eb82a0d14a29f8608883823f09c51d1924ca236b965faa558c7272628829061041c90839085906107bb565b6105b76105f2565b6001600160a01b0381166105e657604051631e4fbdf760e01b8152600060048201526024015b60405180910390fd5b6105ef8161061f565b50565b6000546001600160a01b031633146103d85760405163118cdaa760e01b81523360048201526024016105dd565b600080546001600160a01b038381166001600160a01b0319831681178455604051919092169283917f8be0079c531659141344cd1fd0a4f28419497f9722a3daafe3b4186f6b6457e09190a35050565b60006020828403121561068157600080fd5b5035919050565b80356001600160a01b038116811461069f57600080fd5b919050565b6000806000606084860312156106b957600080fd5b833592506106c960208501610688565b9150604084013590509250925092565b6000602082840312156106eb57600080fd5b6106f482610688565b9392505050565b60006020828403121561070d57600080fd5b815180151581146106f457600080fd5b60006020828403121561072f57600080fd5b5051919050565b8181526040602082015260006106f4604083016003815262189a5960ea1b602082015260400190565b606081526000610782606083016003815262189a5960ea1b602082015260400190565b6020830194909452506040015290565b8181526040602082015260006106f46040830160038152623bb4b760e91b602082015260400190565b6060815260006107826060830160038152623bb4b760e91b60208201526040019056fea2646970667358221220d92a89e431b8f273ef10dafc6a960de0e7e73220182034a799a9ffb5b03618f864736f6c63430008140033",
  "linkReferences": {},
  "deployedLinkReferences": {}
}